:100000000C942A000C9434000C9434000C943400AA
:100010000C9434000C9434000C9434000C94340090
:100020000C9434000C9434000C9434000C94340080
:100030000C9434000C9434000C9434000C94340070
:100040000C9434000C9434000C9434000C94340060
:100050000C94340011241FBECFE5D4E0DEBFCDBF29
:100060000E9436000C9453000C940000B99A98B387
:1000700082E0892788BB8F9A8F98979A81E090E0D9
:1000800020E030E062E051E040E00196853F71E021
:100090009707DCF321153105C1F728B3262728BBC4
:0A00A000252F342FF2CFF894FFCF84
:00000001FF
