:100000000C942A000C9434000C9434000C943400AA
:100010000C9434000C9434000C9434000C94340090
:100020000C9434000C9434000C9434000C94340080
:100030000C9434000C9434000C9434000C94340070
:100040000C9434000C9434000C9434000C94340060
:100050000C94340011241FBECFE5D4E0DEBFCDBF29
:100060000E9436000C9446000C94000088E087BB88
:1000700083B7896683BF1CBE8CB78F5F8CBF83ED4F
:1000800090E30197F1F700C00000F6CFF894FFCF9E
:00000001FF
