:100000000C942A000C9434000C9434000C943400AA
:100010000C9434000C9434000C9434000C94340090
:100020000C9434000C9434000C9434000C94340080
:100030000C9434000C9434000C9434000C94340070
:100040000C9434000C9434000C9434000C94340060
:100050000C94340011241FBECFE5D4E0DEBFCDBF29
:100060000E9436000C9464000C940000B99A98B376
:1000700082E0892788BB8F98979A40E050E080E023
:1000800090E020E030E0A0E0F0E0E2E071E060E04D
:10009000879911C00196853FB1E09B07CCF32115EC
:1000A0003105B1F728B32E2728BB22B3205822BB35
:1000B000272F362FEDCF4F5F5F4F453FB1E05B07F6
:0C00C0003CF32A2F3F2FE4CFF894FFCF31
:00000001FF
